{
  "contractName": "Product",
  "abi": [
    {
      "inputs": [],
      "payable": false,
      "stateMutability": "nonpayable",
      "type": "constructor"
    },
    {
      "constant": true,
      "inputs": [],
      "name": "location",
      "outputs": [
        {
          "internalType": "string",
          "name": "",
          "type": "string"
        }
      ],
      "payable": false,
      "stateMutability": "view",
      "type": "function"
    },
    {
      "constant": true,
      "inputs": [],
      "name": "mdate",
      "outputs": [
        {
          "internalType": "string",
          "name": "",
          "type": "string"
        }
      ],
      "payable": false,
      "stateMutability": "view",
      "type": "function"
    },
    {
      "constant": true,
      "inputs": [],
      "name": "pname",
      "outputs": [
        {
          "internalType": "string",
          "name": "",
          "type": "string"
        }
      ],
      "payable": false,
      "stateMutability": "view",
      "type": "function"
    },
    {
      "constant": true,
      "inputs": [],
      "name": "price",
      "outputs": [
        {
          "internalType": "string",
          "name": "",
          "type": "string"
        }
      ],
      "payable": false,
      "stateMutability": "view",
      "type": "function"
    },
    {
      "constant": false,
      "inputs": [
        {
          "internalType": "string",
          "name": "_name",
          "type": "string"
        }
      ],
      "name": "setname",
      "outputs": [],
      "payable": false,
      "stateMutability": "nonpayable",
      "type": "function"
    },
    {
      "constant": false,
      "inputs": [
        {
          "internalType": "string",
          "name": "_mdate",
          "type": "string"
        }
      ],
      "name": "setdate",
      "outputs": [],
      "payable": false,
      "stateMutability": "nonpayable",
      "type": "function"
    },
    {
      "constant": false,
      "inputs": [
        {
          "internalType": "string",
          "name": "_loc",
          "type": "string"
        }
      ],
      "name": "setloca",
      "outputs": [],
      "payable": false,
      "stateMutability": "nonpayable",
      "type": "function"
    },
    {
      "constant": false,
      "inputs": [
        {
          "internalType": "string",
          "name": "_price",
          "type": "string"
        }
      ],
      "name": "setprice",
      "outputs": [],
      "payable": false,
      "stateMutability": "nonpayable",
      "type": "function"
    }
  ],
  "bytecode": "0x608060405234801561001057600080fd5b5061095c806100206000396000f3fe608060405234801561001057600080fd5b50600436106100a5576000357c01000000000000000000000000000000000000000000000000000000009004806352573c0c1161007857806352573c0c14610326578063a035b1fe146103e1578063baf8102614610464578063ff52a86c1461051f576100a5565b80631ab8ee4f146100aa57806322664e65146101655780632cefeb07146101e8578063516f279e146102a3575b600080fd5b610163600480360360208110156100c057600080fd5b81019080803590602001906401000000008111156100dd57600080fd5b8201836020820111156100ef57600080fd5b8035906020019184600183028401116401000000008311171561011157600080fd5b91908080601f016020809104026020016040519081016040528093929190818152602001838380828437600081840152601f19601f8201169050808301925050505050505091929192905050506105a2565b005b61016d6105bc565b6040518080602001828103825283818151815260200191508051906020019080838360005b838110156101ad578082015181840152602081019050610192565b50505050905090810190601f1680156101da5780820380516001836020036101000a031916815260200191505b509250505060405180910390f35b6102a1600480360360208110156101fe57600080fd5b810190808035906020019064010000000081111561021b57600080fd5b82018360208201111561022d57600080fd5b8035906020019184600183028401116401000000008311171561024f57600080fd5b91908080601f016020809104026020016040519081016040528093929190818152602001838380828437600081840152601f19601f82011690508083019250505050505050919291929050505061065a565b005b6102ab610674565b6040518080602001828103825283818151815260200191508051906020019080838360005b838110156102eb5780820151818401526020810190506102d0565b50505050905090810190601f1680156103185780820380516001836020036101000a031916815260200191505b509250505060405180910390f35b6103df6004803603602081101561033c57600080fd5b810190808035906020019064010000000081111561035957600080fd5b82018360208201111561036b57600080fd5b8035906020019184600183028401116401000000008311171561038d57600080fd5b91908080601f016020809104026020016040519081016040528093929190818152602001838380828437600081840152601f19601f820116905080830192505050505050509192919290505050610712565b005b6103e961072c565b6040518080602001828103825283818151815260200191508051906020019080838360005b8381101561042957808201518184015260208101905061040e565b50505050905090810190601f1680156104565780820380516001836020036101000a031916815260200191505b509250505060405180910390f35b61051d6004803603602081101561047a57600080fd5b810190808035906020019064010000000081111561049757600080fd5b8201836020820111156104a957600080fd5b803590602001918460018302840111640100000000831117156104cb57600080fd5b91908080601f016020809104026020016040519081016040528093929190818152602001838380828437600081840152601f19601f8201169050808301925050505050505091929192905050506107ca565b005b6105276107e4565b6040518080602001828103825283818151815260200191508051906020019080838360005b8381101561056757808201518184015260208101905061054c565b50505050905090810190601f1680156105945780820380516001836020036101000a031916815260200191505b509250505060405180910390f35b80600190805190602001906105b8929190610882565b5050565b60008054600181600116156101000203166002900480601f0160208091040260200160405190810160405280929190818152602001828054600181600116156101000203166002900480156106525780601f1061062757610100808354040283529160200191610652565b820191906000526020600020905b81548152906001019060200180831161063557829003601f168201915b505050505081565b8060009080519060200190610670929190610882565b5050565b60038054600181600116156101000203166002900480601f01602080910402602001604051908101604052809291908181526020018280546001816001161561010002031660029004801561070a5780601f106106df5761010080835404028352916020019161070a565b820191906000526020600020905b8154815290600101906020018083116106ed57829003601f168201915b505050505081565b8060029080519060200190610728929190610882565b5050565b60028054600181600116156101000203166002900480601f0160208091040260200160405190810160405280929190818152602001828054600181600116156101000203166002900480156107c25780601f10610797576101008083540402835291602001916107c2565b820191906000526020600020905b8154815290600101906020018083116107a557829003601f168201915b505050505081565b80600390805190602001906107e0929190610882565b5050565b60018054600181600116156101000203166002900480601f01602080910402602001604051908101604052809291908181526020018280546001816001161561010002031660029004801561087a5780601f1061084f5761010080835404028352916020019161087a565b820191906000526020600020905b81548152906001019060200180831161085d57829003601f168201915b505050505081565b828054600181600116156101000203166002900490600052602060002090601f016020900481019282601f106108c357805160ff19168380011785556108f1565b828001600101855582156108f1579182015b828111156108f05782518255916020019190600101906108d5565b5b5090506108fe9190610902565b5090565b61092491905b80821115610920576000816000905550600101610908565b5090565b9056fea265627a7a723158202782a376e84daf16203ac9a963ed18592b32ce4e614c659d4deb0aeadbbd096d64736f6c63430005100032",
  "source": "pragma solidity ^0.5.6;\n\ncontract Product{\n    string public pname;\n    string public mdate;\n    string public price;\n    string public location;\n\n\n    constructor() public {\n            pname;\n            mdate;\n            price;\n            location;\n        }\n\n\n    function setname(string memory _name) public{\n        pname=_name;\n\n    }\n    function setdate(string memory _mdate) public{\n\n        mdate=_mdate;\n\n    }\n    function setloca(string memory _loc) public{\n\n        location=_loc;\n\n    }\n    function setprice(string memory _price) public{\n\n        price=_price;\n    }\n\n\n}",
  "sourcePath": "C:\\Users\\vishnu varthan.S\\Desktop\\product-v1-master\\contracts\\Product.sol",
  "compiler": {
    "name": "solc",
    "version": "0.5.16+commit.9c3226ce.Emscripten.clang"
  },
  "schemaVersion": "3.4.7",
  "updatedAt": "2022-05-05T07:36:49.154Z",
  "devdoc": {
    "methods": {}
  },
  "userdoc": {
    "methods": {}
  }
}